:020000040800F2
:10000000080A002001010008BF1F0008251E000883
:10001000BD1F0008F1080008692600080000000064
:100020000000000000000000000000009123000814
:10003000F308000800000000C11F00089323000817
:100040001B0100081B0100081B0100081B01000820
:100050001B0100081B0100081B0100081B01000810
:100060001B0100081B0100081B0100081B01000800
:100070001B0100081B0100081B0100081B010008F0
:100080001B0100081B0100081B0100081B010008E0
:100090001B0100081B0100081B0100081B010008D0
:1000A0001B0100081B0100081B0100081B010008C0
:1000B000E92300081B010008000000001B010008E4
:1000C0001B01000800000000000000001B010008E8
:1000D000000000005D2600081B0100080000000071
:1000E0001B0100081B0100081B010008DFF80CD0F1
:1000F00000F0E4FA0048004781450008080A0020A3
:100100000648804706480047FEE7FEE7FEE7FEE7B1
:10011000FEE7FEE7FEE7FEE7FEE7FEE7E72300086F
:10012000ED000008202A04DB203A21FA02F0002129
:10013000704721FA02F3D040C2F1200291400843F7
:100140001946704740EA01039B0703D009E008C93C
:10015000121F08C0042AFAD203E011F8013B00F88C
:10016000013B521EF9D27047D2B201E000F8012BD8
:10017000491EFBD270470022F6E710B513460A4627
:1001800004461946FFF7F0FF204610BD034611F85C
:10019000012B00F8012B002AF9D1184670472DE9F0
:1001A000FE4F804681EA0300C00F0C46009021F00C
:1001B000004123F00045B8EB0200A94105D24046BA
:1001C000214690461C460B46024623F00040104351
:1001D00047D0270DC7F30A00C3F30A510290401A13
:1001E000019040286BDAC3F3130040F4801B0098A1
:1001F000924620B10023D2EB030A63EB0B0B01986C
:100200005946C0F14002504600F0A9F906460D4695
:1002100050465946019A00F0B1F910EB08006141CF
:10022000002487EA115284EAE7731A4340D0009A07
:1002300062B3019A012A4FEA075215DC001B61EBF9
:1002400002014FF0004202EA0752CDE90042001CD1
:1002500041F5801132462B4600F0B1F903B0BDE8FC
:10026000F08F40462146F9E7001B61EB0201001CBC
:1002700041F5801300185B412018A2F5001747EBE9
:10028000030140EAD570B6196D4111E06D084FEADF
:10029000360645EAC0754FEA0752001B61EB0201C2
:1002A000001C41F5801149084FEA30000019514106
:1002B00032462B4603B0BDE8F04F00F071B900980C
:1002C000012240000023D0EB020263EBE0730098B0
:1002D00021464FEAE074B8EB000061EB0401E9E766
:1002E00083F000435BE781F0004158E72DE9FE4FC2
:1002F00081EA030404F0004421F0004100944FF02F
:10030000000B23F0004350EA01045ED052EA0304DC
:100310005BD0C3F30A54C1F30A552C44A4F2F3345E
:100320000194A0FB0254C1F3130141F48011C3F303
:10033000130343F4801301FB024400FB034E840AC1
:10034000970A44EA815447EA8357A4FB0768029559
:100350008D0A05FB07854FEA932C04FB0C542705F7
:10036000029D4FEA065847EA1637B5EB08056EEBD3
:10037000070C870E920E47EA811742EA8312A7FB09
:100380000201B6EB0B0164EB00042B0D43EA0C33C6
:100390005E1844EB1C50DA465146E7FB0201C5F3F8
:1003A00013044FEA0B3343EA14534FEA0432019C1F
:1003B00043EA0603A4F10C040294009CCDE900B4C6
:1003C00000F0FDF803B0BDE8F08F00200146F9E72A
:1003D0002DE9F04D81EA030404F0004B21F00045C3
:1003E00014464FF0000A23F0004150EA050220D0E5
:1003F00054EA01021DD0C5F30A570246C5F31303A0
:10040000C1F31300C1F30A5640F4801543F480137E
:10041000A7EB0608101BD64608F2FD3873EB050063
:1004200002D308F1010801E092185B41B8F1000F16
:1004300003DA00200146BDE8F08D00204FF4801162
:10044000064684460EE0171B73EB050705D3121B07
:1004500063EB050306434CEA010C49084FEA300000
:1004600092185B4150EA0107EDD152EA030012D025
:1004700082EA040083EA0501084305D0101BAB4162
:1004800006D20122002306E000224FF0004302E0E2
:100490006FF0010253101AEB06004CEB085110EB01
:1004A0000A0041EB0B01BDE8F04D00F079B80EB544
:1004B000C10F80EAE0700844CA07002140F23343CC
:1004C0008DE80E000A460B4600F079F803B000BD37
:1004D00030B50B46014600202022012409E021FA14
:1004E00002F59D4205D303FA02F5491B04FA02F511
:1004F0002844151EA2F10102F1DC30BD2DE9F05FA8
:100500000546002092469B46884606468146402482
:100510001BE02846414647462246FFF703FE534666
:100520005A46C01A914110D311461846224600F08F
:1005300016F82D1A67EB01084F46224601200021CC
:1005400000F00DF817EB00094E41201EA4F1010444
:10055000DFDC484631462A464346BDE8F09F202A64
:1005600004DB203A00FA02F1002070479140C2F10A
:10057000200320FA03F3194390407047202A06DB3A
:10058000CB17203A41FA02F043EAE07306E041FA61
:1005900002F3D040C2F1200291400843194670474F
:1005A00010B5141E73F1000408DA401C41F100017B
:1005B00092185B411A4301D120F0010010BD2DE9D2
:1005C000F04D92469B4611B1B1FA81F202E0B0FAC9
:1005D00080F220329046FFF7C2FF04460F4640EA01
:1005E0000A0041EA0B0153465A46084313D011460C
:1005F00053EA010019D0C8F140025046FFF792FDBE
:1006000005460E46504659464246FFF7A8FF0843A6
:1006100005D0012004E020463946BDE8F08D0020D9
:10062000054346EAE0762C4337430A986305E40A1B
:10063000A0EB08000022FD0A44EA47540A3002D524
:1006400000200146E9E7010510196941DDE9084587
:1006500000196941BDE8F04DA2E7C1F30A52C1F3A8
:10066000130140F2FF3341F480119A4202DA002074
:100670000146704740F233439A42A2F2334202DC11
:100680005242FFF74FBDFFF76ABF000030B5041EAE
:1006900071F1000404DB4FF00044404264EB0101BF
:1006A000141E73F1000405DB1C464FF00043524258
:1006B00063EB0403994208BF904230BD064C074DDE
:1006C00006E0E06840F0010394E807009847103422
:1006D000AC42F6D3FFF70EFD0047000820470008A4
:1006E0002DE9FF41144E9DF80400144640F08000AF
:1006F0008DF804004FF480751F46002229463046CD
:1007000000F0A0FA0A23012201A90C4800F001FF21
:100710000A233A462146094800F04EFE04460122CB
:100720002946304600F08EFA24B14FF0FF3004B075
:10073000BDE8F0810020FAE7001001406C000020C5
:100740002DE9FF41114E14464FF480751F460022DB
:100750002946304600F076FA0A23012201A90C4806
:1007600000F0D7FE0A233A462146094800F0D1FEA0
:10077000044600222946304600F064FA24B14FF0C6
:10078000FF3004B0BDE8F0810020FAE7001001401E
:100790006C00002000F048B97FB5134D9DF80400AF
:1007A000144640F080008DF804001E46002280218F
:1007B000284600F047FA0A23012201A90B4800F05D
:1007C000A8FE0A2332462146084800F0F5FD0446FB
:1007D00001228021284600F035FA1CB14FF0FF308D
:1007E00004B070BD0020FBE7001001406C00002049
:1007F0007FB5104D14461E4600228021284600F089
:1008000021FA0A23012201A90B4800F082FE0A23E3
:1008100032462146084800F07CFE04460022802132
:10082000284600F00FFA1CB14FF0FF3004B070BD45
:100830000020FBE7001001406C00002000F0F4B83D
:100840007FB5134D9DF80400144640F080008DF8EC
:1008500004001E4600224021284600F0F3F90A2336
:10086000012201A90B4800F054FE0A23324621461A
:10087000084800F0A1FD044601224021284600F06E
:10088000E1F91CB14FF0FF3004B070BD0020FBE770
:10089000001001406C0000202DE9FF41114D17466A
:1008A0001E4600224021284600F0CCF90A230122EE
:1008B00001A90D4800F02DFE4FF0FF3460B90A2366
:1008C00032463946084800F024FE064601224021FF
:1008D000284600F0B7F91EB1204604B0BDE8F0810B
:1008E0000020FAE7001001406C00002000F09CB8E6
:1008F000FEE77047704700002DE9F05F90F8211087
:100900000024022903D004218163012485E00168C9
:100910000A6822F00E020A6001680A6822F00102E9
:100920000A603F4E3E4FB215DFF8F4C0DFF8F0909A
:10093000DFF8ECA0DFF8E8B0DFF8E4E00168783F2A
:1009400013011502ACF1640CA9F15009AAF13C0A9B
:10095000ABF1280BAEF1140E4FF48018B14227D939
:10096000B9420ED0614512D049451DD0514518D02D
:10097000594518D0714501D1424615E0294EB14282
:1009800001D1012210E0274E1436B14201D11022CC
:100990000AE0244E2836B14206D0224A3C32914227
:1009A00001D11A4600E02A461E49091F0A602BE0C1
:1009B000B94213D0614517D0494522D051451DD0C9
:1009C00059451DD0714501D142461AE0B14202D1CC
:1009D0004FF0807215E0134EB14201D1012210E0B8
:1009E000104E1436B14201D110220AE00D4E2836C5
:1009F000B14206D00B4A3C32914201D11A4600E086
:100A00002A46074980394A60012180F821100021D7
:100A100080F82010416B01B188472046BDE8F09F67
:100A2000800002400804024070B5044600F010F94E
:100A30000546601C02D004480078044400F008F920
:100A4000401BA042FAD370BD000000202DE9F84FF2
:100A5000DFF8C891002409F1040A0AF1040B2346C7
:100A60000F270BF1040ED1E00125A54006EA05028F
:100A7000AA4276D1DFF8A8C14E68A6EB0C086645FD
:100A80002BD00DDC032E34D005DC36B3012E19D06B
:100A9000022E2FD11BE0112E16D0122E2AD119E0D2
:100AA000B8F5881F19D006DCB8F5803F15D0B8F529
:100AB000801F1FD111E0B8F5001F0ED0B8F5041F3C
:100AC00018D10AE0CB6815E0CB681B1D12E0CB689B
:100AD00008330FE0CB680C330CE08B682BB1012B93
:100AE0004FF0080303D0456104E0042302E00561F0
:100AF00000E00023FF2A01D8064601E000F10406C9
:100B00004FEA840501D9A5F12005D6F8008007FA3F
:100B100005FC28EA0C0803FA05F548EA0508C6F8BA
:100B200000804D68ED0070D53E4DAE6946F001067F
:100B3000AE61AD6924F0030605F0010500953A4D5C
:100B400006EB050CDCF80850A607360F07FA06F886
:100B500025EA0805DFF8D480404503D14FF00008AE
:100B600025E052E0DFF8C880404502D14FF001088F
:100B70001DE0DFF8C080404502D14FF0020816E0CA
:100B8000DFF8B480404502D14FF003080FE0DFF8F2
:100B9000AC80404502D14FF0040808E0DFF8A080A7
:100BA000404502D14FF0050801E04FF0060808FA71
:100BB00006F848EA0508CCF808804D68D9F80060C6
:100BC000ED034D4601D5164300E096432E604D6877
:100BD000DAF80060AD03554601D5164300E09643B0
:100BE0002E604D68DBF80060ED025D4601D51643CE
:100BF00000E096432E604D68DEF80060AD02754659
:100C000001D5164300E096432E60641C0A68164620
:100C1000E2407FF429AFBDE8F88F000000040140F6
:100C200000001110001002400000014000080140C7
:100C3000000C014000100140001401400018014068
:100C4000001C01400AB1016170470904FBE7000084
:100C50000148806870470000000000200248816859
:100C6000027811448160704700000020074810B5E9
:100C7000016841F010010160032000F075F80020C8
:100C800000F006F800F024F8002010BD002002401B
:100C900070B50D4D04464FF47A712878B1FBF0F031
:100CA0000A490968B1FBF0F000F0D7FD48B9102CF3
:100CB00007D200222146501E00F036F800206C605A
:100CC00070BD012070BD0000000000200C0000205D
:100CD0000C4808B5816941F001018161816901F029
:100CE00001010091C16941F08051C161C06900F00A
:100CF000805000900448416821F0E06141F00071AB
:100D0000416008BD0010024000000140002809DBDE
:100D100000F01F02012191404009800000F1E02015
:100D2000C0F8001170470000F0B40E4B1B680C4671
:100D3000C3F30223C3F10705042D00D90425191DAF
:100D4000072901D2002300E0DB1E012606FA05F187
:100D5000491E214099409E40761E16403143F0BC0A
:100D600001F014BE0CED00E0064900F0070208682F
:100D70004FF6FF03184040EA0220034A1043086080
:100D8000704700000CED00E00000FA052DE9F04787
:100D90000F46050061D0434E306800F00700B842AE
:100DA00009D2306820F0070038433060306800F026
:100DB0000700B84251D128683B4C810712D5400743
:100DC00003D5606840F4E06060602878000703D5D0
:100DD000606840F4605060606068A96820F0F000CE
:100DE000084360602878C00728D06868012810D0C0
:100DF0002168022810D0890700292EDA616821F0C5
:100E0000030101436160FFF723FF804641F2883907
:100E10000DE021688903EFE78901EDE7FFF718FF8F
:100E2000A0EB0801494502D90320BDE8F0876068BE
:100E3000696800F00C00B0EB810FEFD1306800F072
:100E40000700B8420BD9306820F007003843306003
:100E5000306800F00700B84201D00120E5E72878AB
:100E6000400705D56068E96820F4E06008436060E9
:100E70002878000706D56068296920F4605040EAA8
:100E8000C100606000F038F86168084AC1F30311DE
:100E9000515CC8400649086006480068FFF7F8FE44
:100EA0000020C2E70020024000100240D84600089F
:100EB0000C0000200400002004480549006849682F
:100EC000044AC1F30221515CC84070470C00002065
:100ED00000100240E84600080448054900684968D7
:100EE000044AC1F3C221515CC84070470C00002085
:100EF00000100240E846000812A185B00FC98DE835
:100F00000F0014A0144A006804905168134801F0BF
:100F10000C03042B10D0082B0ED1C1F38343C9035B
:100F20001DF803000AD5516804AAC1F34041515C81
:100F30000A4A5043B0FBF1F005B0704708494843F6
:100F4000FAE7000002030405060708090A0B0C0D66
:100F50000E0F1010010200000010024000127A0073
:100F600000093D002DE9F84F040070D02078C04DF5
:100F7000C00749D06868C0F38100012807D06868BD
:100F8000C0F38100022809D16868C00306D528682B
:100F9000800339D560680028E7D035E06068B0F597
:100FA000803F0BD010B1B0F5A02F11D0286820F4ED
:100FB00080302860286820F4802002E0286840F40F
:100FC00080302860606890B1FFF742FE06460AE074
:100FD000286840F480202860F0E700BFFFF738FE63
:100FE000801B642873D828688003F7D50CE0FFF7CE
:100FF0002FFE064605E000BFFFF72AFE801B64288F
:10100000F0D828688003F7D420789A4E80074FF0F4
:1010100001094FF0000839D5686810F00C0F07D0AF
:101020006868C0F38100022809D16868C00306D44B
:101030002868800714D52069012808D110E02069AC
:10104000B0B1C6F80090FFF703FE074605E00AE1DD
:10105000FFF7FEFDC01B0228C4D828688007F7D51B
:101060002868616920F0F80040EAC10028600DE0BE
:10107000C6F80080FFF7ECFD074604E0FFF7E8FD47
:10108000C01B022823D828688007F7D420780007DF
:101090002CD57948A169D9B1C0F80090FFF7D8FDE7
:1010A000074604E0FFF7D4FDC01B02280FD8686A8A
:1010B0008007F7D571484FF4FA510068B0FBF1F0A2
:1010C000009000BF0098411E0091FAD20EE080E02F
:1010D000C0F80080FFF7BCFD074604E0FFF7B8FD4D
:1010E000C01B022875D8686A8007F7D420784007AB
:1010F00060D5E8690027C00008D4E86940F0805056
:10110000E861E869012700F0805000905C480168C0
:10111000C90513D40168834641F480710160FFF76B
:1011200097FD824606E000BFFFF792FDA0EB0A00A4
:1011300064284ED8DBF80000C005F5D5E06801282A
:101140000AD008B1052813D0286A20F001002862CF
:10115000286A20F0040002E0286A40F001002862BA
:10116000E06841F2883B98B1FFF772FD82460BE0E0
:10117000286A40F004002862EEE700BFFFF768FD30
:10118000A0EB0A0159455AD8286A8007F6D50CE029
:10119000FFF75EFD824605E0FFF75AFDA0EB0A016E
:1011A00059454CD8286A8007F6D41FB1E86920F069
:1011B0008050E861E06988B36968C1F38101022960
:1011C00044D00228C6F8608004D0FFF741FD0446F1
:1011D00038E034E0FFF73CFD074604E0FFF738FD58
:1011E000C01B02282BD828688001F7D4206AB0F5EC
:1011F000803F05D16868A16820F40030084368602A
:10120000D4E908010843696821F47411084368604F
:10121000C6F86090FFF71CFD044606E025E000BF1D
:10122000FFF716FD001B022809D828688001F7D5B2
:101230001BE000BFFFF70CFD001B022802D90320B2
:10124000BDE8F88F28688001F4D40EE00128F7D0BB
:101250006868226A00F48031914204D1616A00F426
:101260007010884201D00120EAE70020E8E7000082
:101270000010024000004242800442420C00002064
:101280000070004070B5040009D0606A002540B1CC
:1012900025616561A56294F8510040B10CE0012020
:1012A00070BD6068B0F5827FF4D0E561F2E784F844
:1012B0005050204600F040F8022084F85100206889
:1012C000016821F040010160A088218900F482704A
:1012D00001F404410843A18901F400610843217C21
:1012E00001F002010843217D01F001010843218B37
:1012F00001F400710843217F01F03801084394F89C
:10130000201001F080010843218D01F400510843B1
:1013100021680860A069042101EA10402168486042
:101320002068C16921F40061C1616565012084F80C
:101330005100002070BD000030B585B0002400943D
:101340000194029403940068174988422AD11748EF
:10135000816941F480518161816901F48051049176
:10136000816941F0080181618069114D00F0080038
:1013700004902820009002200190032003906946E9
:101380002846FFF763FB1020CDE900046946284694
:101390000294FFF75BFB0748416841F0E06141F0D0
:1013A0000101416005B030BD003001400010024035
:1013B000000C0140000001402DE9F84F0446406850
:1013C0000025984616460F464FF0040BB0F5827F75
:1013D00001D1A06888B194F85000012818D00120EC
:1013E00084F85000FFF734FC814694F851004FF028
:1013F000000A01280ED0022582E084F851B013467D
:101400000A462046CDF8008000F036F9BDE8F88F96
:101410000220FBE7002F72D0002E70D084F851B06C
:10142000C4F854A0A763A687E687C4F830A0A4F840
:1014300034A0A4F836A0C4F840A0C4F844A0A06822
:10144000B0F5004F09D12068016821F0400101602A
:101450002068016821F48041016020680168490624
:1014600003D4016841F040010160E068D8B139E07F
:1014700020688168C90709D0007BA16B0870A06B48
:10148000401CA063E08F401EE0870CE0FFF7E0FB0C
:10149000A0EB0901414503D3B8F1FF3F03D036E08B
:1014A000B8F1000F33D0E08F0028E1D11DE02068B3
:1014B0008168C90709D0C068A16B0880A06B801C37
:1014C000A063E08F401EE0870CE0FFF7C1FBA0EBBC
:1014D0000901414503D3B8F1FF3F03D017E0B8F14C
:1014E000000F14D0E08F0028E1D14A464146204643
:1014F00000F0B4FE08B120206065606D00B10125E8
:10150000012084F8510084F850A028467EE7032586
:10151000F6E72DE9F84F044690F8500000271D46E5
:101520001646894601280DD04FF0010B84F850B0C3
:10153000FFF78EFB804694F85100BA46012804D08C
:10154000022793E00220BDE8F88FB9F1000F73D0B5
:10155000002E71D0032084F85100C4F854A0C4F8C0
:101560003090A686E686C4F838A0A4F83CA0A4F87B
:101570003EA0C4F844A0C4F840A0A068B0F5004F55
:1015800009D12068016821F04001016020680168EC
:1015900041F48041016020680168490603D4016874
:1015A00041F040010160E068B0F5006F606803D071
:1015B00030B3012E24D041E008B1012E1CD1206BA4
:1015C00021680088C86006E020688168890709D51D
:1015D000216B0988C160206B801C2063E08E401E57
:1015E000E08609E0FFF734FBA0EB0800A84202D335
:1015F000681C01D031E07DB3E08E0028E4D120E00A
:10160000206B21680078087306E0206881688907EC
:1016100009D5216B09780173206B401C2063E08E93
:10162000401EE0860AE0FFF713FBA0EB0800A8428B
:1016300003D3681C02D010E017E06DB1E08E0028E3
:10164000E3D142462946204600F036FE08B120206C
:101650006065A06818B106E0FFE7032706E0206890
:10166000C16880680090606D00B1012784F851B0B6
:1016700084F850A0384666E72DE9F84F044690F804
:10168000500000270A9E1D4692468B464FF00109E6
:1016900001280ED0012084F85000FFF7D9FA8046C7
:1016A00094F85100616801280CD0B1F5827F07D110
:1016B00002E00220BDE8F88FA16809B9042801D032
:1016C0000227C2E0BBF1000F27D0BAF1000F24D0EF
:1016D0001DB394F85100042802D0052084F851006D
:1016E00000206065C4F838A0E587A587C4F830B04D
:1016F000E586A5862064606420680168490603D4F5
:10170000016841F040010160E068B0F5006F606879
:1017100005D0E8B3012D46D07FE0012795E008B160
:10172000012D39D1206B21680088C860206B801C96
:101730002063E08E401EE0862EE0206881688907E5
:101740000FD5E18E69B1B9F1010F0AD1216B09887A
:10175000C160206B801C2063E08E401EE0864FF04D
:10176000000920688168C9070CD0E18F51B1C068B9
:10177000A16B0880A06B801CA063E08F401EE087F7
:101780004FF00109FFF764FAA0EB0800B04200E057
:1017900009E001D3701C50D1E08E0028CDD1E08F3C
:1017A0000028CAD13FE0206B216800780873206BC5
:1017B000401C2063E08E401EE0862EE02068816899
:1017C00089070FD5E18E69B1B9F1010F0AD1216BFB
:1017D00009780173206B401C2063E08E401EE08678
:1017E0004FF0000920688168C9070CD0E18F51B122
:1017F000C068A16B0870A06B401CA063E08F401E06
:10180000E0874FF00109FFF723FAA0EB0800B04290
:1018100002D3701C01D010E07EB1E08E0028CDD143
:10182000E08F0028CAD142463146204600F044FDF0
:1018300028B101272020606507E0032705E0A068A4
:1018400018B92068C16880680090012084F85100B0
:10185000002084F8500038462CE710B5401EB0F147
:10186000807F01D3012010BD4FF0E02460610F2183
:10187000601701F08BF80020A06107202061002094
:1018800010BD70477047000070B590F83C20012AE9
:101890002CD0012480F83C40022280F83D200368CF
:1018A0005A689D6822F070060A6832435A60104BED
:1018B00002689A420ED00F4B9A420BD0B2F1804F81
:1018C00008D00D4B9A4205D00C4B9A4202D00C4BDB
:1018D0009A4204D1496825F080031943916080F849
:1018E0003D40002180F83C10084670BD022070BDCC
:1018F000002C01400034014000040040000800407A
:10190000000C004010B5040003D094F83D0010B165
:1019100007E0012010BD002084F83C00204600F0C4
:101920001FF8022084F83D00211D206800F062FDB0
:10193000012084F8460084F83E0084F83F0084F8D3
:10194000400084F8410084F8420084F8430084F8A1
:10195000440084F8450084F83D00002010BD0000DC
:1019600008B50068B0F1804F12D10A48C16941F052
:101970000101C161C069012200F00100009011461F
:101980001C20FFF7D1F9BDE808401C20FFF7BEB9C5
:1019900008BD00000010024070B5044690F83C00FD
:1019A000012817D0012584F83C50022084F83D001E
:1019B0002068826822F0770222F47F428260086801
:1019C000502830D00DDC20284DD005DC98B31028ED
:1019D0003BD148E0022070BD302844D0402834D1AB
:1019E00039E0602828D0702806D0B0F5805F2CD070
:1019F000B0F5005F29D10AE0CB68D1E90121206868
:101A000000F03EFD2068816841F0770109E0CB6875
:101A1000D1E90121206800F033FD2068816841F49C
:101A20008041816011E0CA684968206800F03AFD91
:101A30005021206807E016E0CA684968206800F075
:101A400042FD6021206800F025FD84F83D50002013
:101A500084F83C0070BDCA684968206800F022FD27
:101A600040212068EFE7226801461046EBE7704707
:101A700070B50446006801694FF00005C943890745
:101A800015D4C168C943890711D4E91E0161012039
:101A90002077206880698007204602D0FFF7E7FFA3
:101AA00004E000F098F8204600F096F825772068CA
:101AB0000169C943490717D4C168C943490713D409
:101AC0006FF004010161022020772068806910F422
:101AD000407F204602D0FFF7CAFF04E000F07BF809
:101AE000204600F079F8257720680169C943090785
:101AF00016D4C168C943090712D46FF00801016107
:101B0000042020772068C0698007204602D0FFF7B4
:101B1000AEFF04E000F05FF8204600F05DF82577A6
:101B200020680169C943C90617D4C168C943C906F9
:101B300013D46FF010010161082020772068C0697C
:101B400010F4407F204602D0FFF791FF04E000F040
:101B500042F8204600F040F8257720680169C94323
:101B6000C90708D1C168C943C90704D1891E0161E9
:101B7000204600F032F820680169C943090609D4FB
:101B8000C168C943090605D46FF080010161204690
:101B9000FFF777FE20680169C943490609D4C16887
:101BA000C943490605D46FF040010161204600F0A9
:101BB00015F820680169C94389060BD4C168C94377
:101BC000890607D46FF0200101612046BDE870400E
:101BD000FFF758BE70BD7047704770477047704739
:101BE00070B5026804461068D168536910F00F0F91
:101BF00052D003F0010501F490762E435FD0C20766
:101C000005D0CA0503D5E26B42F00102E263420748
:101C100005D5DA0703D0E26B42F00202E2638207E5
:101C200005D5DA0703D0E26B42F00402E263020753
:101C300007D501F020022A4303D0E26B42F00802EC
:101C4000E263E26B002A33D0800604D5880602D511
:101C5000204600F060FC20684069E16BC0F3801012
:101C6000090700D428B3204600F047FC20684169EA
:101C700049061AD5416921F040014161606BA0B16C
:101C80002D494163606BFEF737FE002810D0606B72
:101C9000416BBDE870400847830610D58B060ED512
:101CA0002046BDE8704000F036BC2046FFF797FFA5
:101CB00070BD2046FFF793FF0020E06370BD030670
:101CC0002BD50B0629D594F839002128F6D1A06828
:101CD000B0F5805F01D12069B0B1206A411C21625A
:101CE000216800784860E08C401E0004000CE0840D
:101CF000E4D12068C16821F08001C1602068C1681A
:101D000041F04001C16070BD206A0088C0F3080046
:101D10005060206A801C2062E5E74006F3D5480643
:101D2000F1D5D168204621F04001D160202184F80E
:101D3000391000F076F870BDEB24000870B504008F
:101D400004D094F83900002510B106E0012070BDE0
:101D500084F83850204600F023F8242084F8390015
:101D60002068C16821F40051C160204600F01AFCCF
:101D70002068016921F4904101612068416921F0E6
:101D80002A0141612068C16841F40051C160E563E6
:101D9000202084F8390084F83A00002070BD00004B
:101DA00030B585B000240094019402940394006837
:101DB000184988422CD11848816941F480418161D9
:101DC000816901F480410491816941F004018161DC
:101DD0008069124D00F0040004904FF400700090F0
:101DE000022001900320039069462846FEF72EFE4C
:101DF0002815CDE90004694628460294FEF726FE20
:101E0000002211462520FEF78FFF2520FEF77EFFDA
:101E100005B030BD0038014000100240000801400C
:101E200070477047FEE700002DE9F04385B00024BD
:101E300025480094019402940394816941F01001B3
:101E40008161816901F010010491816941F02001F3
:101E50008161816901F020010491816941F00801EB
:101E60008161816901F008010491816941F00401F7
:101E700081618069DFF8548000F004004FF4004570
:101E80000490002229464046FEF7DCFEDFF8409031
:101E90004FF4E077012239464846FEF7D3FE00951D
:101EA000022601250396CDE9015469464046FEF716
:101EB000CDFD00970396CDE9015469464846FEF7EB
:101EC000C5FD05B0BDE8F08300100240000C0140E4
:101ED00000100140104810B50E4901604FF48271A6
:101EE000416000218160C1604FF400720161C0E96E
:101EF00005121022C0E90721416281620A21C162F4
:101F0000FFF7C0F9002803D0BDE81040FEF7F2BC8F
:101F100010BD0000003001406C00002010B586B0FC
:101F200000241748009401940294039404944FF001
:101F300080410594016040F2CF21C0E9011440F2D4
:101F4000E731C0E9031480218161FFF7DBFC08B1B0
:101F5000FEF7D0FC4FF48050009069460848FFF728
:101F60001BFD08B1FEF7C6FC049404A904480594BF
:101F7000FFF78AFC002801D0FEF7BCFC06B010BDBC
:101F8000C40000200C4810B50A4901604FF4E1314B
:101F90004160002181600C22C160C0E904128161AE
:101FA000C161FFF7CBFE002803D0BDE81040FEF76B
:101FB000A1BC10BD003801400C010020FEE77047B5
:101FC000704700002DE9F04107460B4815460E46C4
:101FD000007808B900F04AFBEFF31184202080F369
:101FE00011882A463146384600F008F8E1B281F3FC
:101FF0001188BDE8F08100004C01002070B50E464C
:10200000144900EB400001EBC0051446E86A18359E
:1020100020B101280FD0022805D113E0284600F096
:1020200059FBA04201D2002411E022463146284645
:1020300000F076FC0BE0284600F04CFBA042F4D206
:102040000446F2E73146284600F03DFC04462046AF
:1020500070BD00004C0100200FB408B504A9009128
:102060006A46039900F004F801B05DF814FB000023
:102070002DE9F0419AB0064607A8029040200025BD
:10208000CDE90305CDE9055690460C4614F8011B31
:1020900000297DD0252908D002A800F0F5FB05987D
:1020A0000028F3DA1AB0BDE8F0810020012122787F
:1020B000232A1ED02B2A19D02D2A02D0302A08D14B
:1020C00002E040F0010001E040F00200641C002941
:1020D000EDD100222178A1F130030A2B0CD202EBC2
:1020E000820201EB4202303A641CF3E740F0040044
:1020F000ECE740F00800E9E70023CFB22E2F0BD128
:1021000014F8011FA1F130070A2F05D203EB830356
:1021100001EB4303303BF3E76C290CD068290AD06C
:10212000662919D00FDC582958D007DC252939D069
:1021300046293AD110E014F8011FEDE763292BD0AE
:10214000642932D133E0702967D0732953D07529BF
:102150003AD0782929D141E0179518951995D8F8E2
:10216000000017AFC01D20F0070000F10801C8F8FB
:102170000010D0E9002337A1384600F0F3FB00BF80
:1021800017F8011B89B102A800F07EFB059800E05A
:102190004FE00028F4DA08E0D8F80000011DC8F884
:1021A0000010017802A800F06FFB641C77E7D8F8F4
:1021B00000100F1DC8F800700968CDE900200A2240
:1021C00002A800F093FAF0E7D8F800100F1DC8F845
:1021D00000700968CDE900200A2208E0D8F8001054
:1021E0000F1DC8F800700968CDE90020102202A870
:1021F00000F0E0FAD9E7D8F80000011DC8F8001097
:10220000D0F8007017F8011B0029CED002A800F00A
:102210003BFB05980028F5DAC7E7D8F80000011D58
:10222000C8F8001001680820CDE900050346102217
:10223000DDE7059800287FF735AF049820B1024606
:1022400007A93046FFF7BEFEDDE9041008440590FB
:1022500028E7000025342E3366000000F8B5044658
:1022600040684FF48273984217D1A0684FF480659C
:10227000B0F5004F01D0A8420FD12068066826F0C3
:10228000400606606068984207D1A068A84204D161
:1022900000920B460022012103E000920B4600222F
:1022A0008021204600F018F8002804D0606D40F02E
:1022B000200060650320F8BD38B50B460092044647
:1022C0000022802100F008F8002804D0606D40F062
:1022D00020006065032038BD2DE9F8431E46914675
:1022E00088460446089DFEF7B3FC401B351AFEF7EE
:1022F000AFFC074625480068C0F3CB30684338E0A0
:10230000701C37D0FEF7A4FCC01BA84203D215B145
:10231000009860B32CE02068416821F0E001416042
:102320006068B0F5827F0BD1A068B0F5004F02D095
:10233000B0F5806F04D12068016821F04001016090
:10234000A06AB0F5005F09D12068016821F400514E
:1023500001602068016841F400510160012084F8A7
:102360005100002084F850000320BDE8F8830025C8
:10237000401E00902068816838EA010004D00021E6
:102380004945BDD10020F0E70121F9E70C0000200C
:102390007047FEF763BC30B58FB028216846FDF763
:1023A000EAFE14210AA8FDF7E6FE01204FF4A02161
:1023B00000248DE81300049002250004CDE90750A5
:1023C0004FF4E01009906846FEF7CCFD0F20CDE9F0
:1023D0000A056802CDE90C4002210AA80E94FEF716
:1023E000D5FC0FB030BD70470148FFF741BB00007E
:1023F000C4000020F0B502681C4B1D4D1D4E1E4F41
:102400001E4C4FF0804C984209D0A04207D0604546
:1024100005D0A84203D0B04201D0B84204D122F086
:10242000700E4A6842EA0E02984209D0A04207D0D4
:10243000604505D0A84203D0B04201D0B84203D1D4
:1024400022F44075CA682A434D6922F080022A436B
:1024500002608A68C2620A688262984201D0A04221
:1024600001D10969016301214161F0BD002C0140E6
:102470000004004000080040000C0040003401400F
:1024800010B5846842EA032224F47F440A432243BD
:10249000826010BD826822F070020A4342F0070198
:1024A0008160704710B5036A046A24F00104046275
:1024B000846924F0F00444EA021423F00A020A4377
:1024C0008461026210BD10B5036A23F01003036239
:1024D0008369046A23F4704343EA023224F0A003C0
:1024E00043EA01118261016210BD10B5406A00210A
:1024F000C185C184FFF773FB10BD0168CA6822F46F
:102500009072CA6001684A6922F001024A61202182
:1025100080F83A10704710B590F83A10222901D08F
:10252000022010BD82684FF480539A4201D10169A4
:1025300021B1816A9A421BD04AB10AE00268816ADD
:102540005268C2F308020A80816A891C08E00269A5
:1025500072B10268526802F07F020A70816A491CF7
:102560008162C18D491E0904090CC18503D016E0A2
:1025700002685268F1E70168CA6822F02002CA6066
:102580000168CA6822F48072CA6001684A6922F050
:1025900001024A61202180F83A10FFF741FC002037
:1025A00010BD000070B5044600680169E26821F4BE
:1025B0004051114301612169A068084361690843E2
:1025C0002168CA6841F20C639A430243CA602068DA
:1025D0004169A26921F44071114341611E4920689B
:1025E000884202D1FEF778FC01E0FEF765FC00EBC3
:1025F000C00101EB0012606864218000B2FBF0F3BF
:10260000B3FBF1F36FF018067343B2FBF0F5B2FBC6
:10261000F0F605EB8305322303EB0515B5FBF1F569
:10262000B6FBF1F605F0F00505EB0615B2FBF0F68A
:10263000B2FBF0F0B0FBF1F06FF01802504306EB84
:10264000800003EB0010B0FBF1F0216800F00F00F8
:102650002844886070BD0000003801400148FFF741
:10266000BFBA00000C010020FEE7000010B5124CBC
:1026700003202061606111A0A06104F1A800E06165
:102680004FF4806020620020A0626062E0620BA1D3
:10269000216604F5956161661021A1662067E066F8
:1026A000606709A1E01DFDF771FD08A12046FDF757
:1026B0006DFD2020A07110BD4C0100205465726D8D
:1026C000696E616C00000000525454005345474746
:1026D000455200000269C1688A4203D88068401AE6
:1026E000104400E0501A401E704700002DE9FC5FC6
:1026F0000E008146DDE90C47C6F10000984693467E
:10270000824600D40846012503E000BF90FBFBF0A1
:102710006D1C5845FADAA84500D9454624B1002E6B
:1027200001DB780700D5641EB80702D5B8F1000FA9
:102730000FD0F8070DD164B1A5420AD22021484636
:10274000641E00F0A1F8D9F80C000028F3DABDE807
:10275000FC9FD9F80C000028F9DB002E02DA56465F
:102760002D2102E0780707D52B21484600F08CF890
:10277000D9F80C000028EADB07F0030002280FD18B
:10278000B8F1000F0CD15CB1A54209D23021484606
:10279000641E00F079F8D9F80C000028F3DAD6E7C7
:1027A000CDE9004743465A463146484600F002F814
:1027B000CDE700002DE9F84F8246DDE90A4B0126FE
:1027C000984691460D460846374602E0B0FBF9F0C0
:1027D0007F1C4845FAD2B84500D947465FEACB701E
:1027E00017D1B4B15FEA8B7002D5B8F1000F02D0F7
:1027F000202000900BE03020FBE75046641E00993B
:1028000000F042F8DAF80C00002838DB0CB1A742DF
:10281000F3D3DAF80C00002831DB00BFB8F1010F68
:1028200002D9A8F1010803E0B5FBF6F0484502D350
:1028300006FB09F6F2E7DFF84C8000BFB5FBF6F0C7
:1028400000FB165518F80010504600F01DF8DAF895
:102850000C00002803DBB6FBF9F6002EEED15FEA90
:10286000CB700CD0002C0AD0A74208D220215046B1
:10287000641E00F009F8DAF80C000028F2DABDE86E
:10288000F88F0000F046000810B50446D4E9013086
:10289000421C934205D323681954A260E068401C8F
:1028A000E060D4E90102824209D121682069FFF782
:1028B00089FBA168884203D04FF0FF30E06010BD73
:1028C0000020A06010BD2DE9F047C4681746894676
:1028D00006464FF000083069A04201D9051B02E00E
:1028E000B168201A0D1AB0686D1E001BA84200D8EE
:1028F0000546BD4200D33D4670682A4620444946FD
:10290000FDF720FCB0687F1B2C44A844A944A042DA
:1029100000D10024F460002FDDD14046BDE8F087EF
:102920002DE9F04104468846D4E90207C51BE16859
:10293000606816460844B54206D94146FDF702FCD8
:10294000B819E060BDE8F0812A464146FDF7FAFB80
:10295000761B08EB050132466068FDF7F3FBE66085
:10296000F0E700000FB4084B10B504A902AA0398C1
:1029700000F0EEF8044602A9002000F080FC20469A
:1029800010BC5DF814FB00007F3200080907090E37
:10299000002804DB00F1E02080F80014704700F00C
:1029A0000F0000F1E02080F8141D704702E008C815
:1029B000121F08C1002AFAD170477047002001E0B9
:1029C00001C1121F002AFBD1704700002DE9FF5FF3
:1029D00082B00021DDE90430020DDDF840B0034390
:1029E00018D044F61050A2F2FF3242431514119849
:1029F00001281FD0A5EB0B00401C5FEA000A4FF036
:102A000000064E4FDFF83891B046504615D5CAF152
:102A1000000413E0119801244AA3012801D16FEAB0
:102A20000B010298119AC0E90031C0E9024206B0D8
:102A3000BDE8F09FCBF10000DFE704460021404AEB
:102A4000491842EB0450CDE9001012E0E00707D02E
:102A500032463B4640464946FDF748FC804689469B
:102A600032463B4610461946FDF740FC06460F46E7
:102A70006410002CEAD1DDE90401DDE90023BAF19C
:102A8000000F06DAFDF732FC42464B46FDF72EFCFE
:102A900005E0FDF79DFC42464B46FDF799FC0446D8
:102AA0000E460022284BFDF7F1FD03D84FF0FF3012
:102AB000014607E00022254B20463146FDF76FFB1B
:102AC000FDF7CBFD102409E0002C0ADB0A220023CD
:102AD000FDF714FD039B30321A55641E50EA0102C3
:102AE000F2D1641C039AC4F111031444119A012A0F
:102AF00003D0012208430DD10AE0084304D000208E
:102B00004FF0110B119072E7A3EB0B056D1E0DE05A
:102B10005B4504DD4FF0000205F1010504E003DA36
:102B20004FF00002A5F10105002AECD0029811999E
:102B3000C0E90231C0E9004579E700000000144017
:102B40000000F03F300000000000F0430000E03FD4
:102B50002DE9FF4F95B09B468946064600250FE2BA
:102B6000252877D100242746F84A0121059400E062
:102B7000044316F8013F203B01FA03F01042F7D15D
:102B800030782A2811D06FF02F033078A0F130026E
:102B9000092A16D8059A44F0020402EB820203EBDC
:102BA00042021044761C0590EFE759F8042B059279
:102BB000002A03DA504244F40054059044F0020421
:102BC000761C30782E2816D116F8010F44F0040434
:102BD0002A280DD06FF02F023078A0F13003092B96
:102BE00009D807EB870302EB4303C718761CF3E70A
:102BF00059F8047B761C30786C280FD006DC4C2802
:102C000017D068280DD06A2814D104E0742810D099
:102C10007A280FD10DE044F400140AE044F4801443
:102C200001E044F440147278824202D104F5801429
:102C3000761C761C307866280BD013DC582877D0A9
:102C400009DC002875D04528F6D04628F4D047285E
:102C50001AD19DE118E0632835D0642879D0652821
:102C600012D195E1702873D008DC6728F1D069286B
:102C70006FD06E280DD06F2806D1B5E073282CD008
:102C8000752875D0782874D05A46179990476D1CCE
:102C900075E1C4F30250022809D003280DD0D9F8F9
:102CA000001004280DD00D6009F1040967E1D9F87E
:102CB0000010EA17C1E90052F6E7D9F800100D80BC
:102CC000F2E70D70F0E719F8041B8DF800100020F2
:102CD0008DF80100EA46012003E059F804AB4FF0FB
:102CE000FF3061074FF0000102D40DE008F101014F
:102CF0008846B9420FDA8045F8DB1AF80810002937
:102D0000F4D108E008F1010188468142FADB1AF8A3
:102D100008100029F6D105985B46A0EB080721466C
:102D20003846179A00F094FA284400EB080507E0AB
:102D30004DE029E10DE01AF8010B5A46179990472A
:102D4000B8F10108F7D25B4621463846179A13E1DD
:102D500042E00A220092C4F302524FF0000A022A13
:102D600008D059F804CB032A4FEAEC710AD00DE0E1
:102D700029E02AE009F1070121F00702F2E802C187
:102D8000914609E00FFA8CFC4FEAEC71042A03D15A
:102D90004FFA8CFC4FEAEC71002907DA0A46002151
:102DA000DCF1000C61EB02012D2202E0220504D5CA
:102DB0002B228DF80420012203E0E20701D020221B
:102DC000F7E7904659E00A2102E010220DE01021B9
:102DD0004FF0000A00910BE010224FF0000A44F07F
:102DE00004040827009203E008224FF0000A009232
:102DF000C4F30252022A05D059F804CB0021032A59
:102E000008D009E009F1070121F00702F2E802C148
:102E1000914605E01FFA8CFC042A01D10CF0FF0C4E
:102E20004FF00008220728D5702806D0009B83F0B9
:102E3000100353EA0A0305D00EE040228DF8042067
:102E4000012208E05CEA010206D030228DF804205D
:102E50008DF8050002229046009B83F0080353EA98
:102E60000A030AD15CEA010201D1620705D53022CA
:102E70008DF804204FF001087F1E582804D034A09C
:102E800003900EA802900DE036A0F9E75346604685
:102E9000009AFDF733FB84460398825C0298401E3B
:102EA000029002705CEA0100F0D1029806A9081AAB
:102EB00000F1200A600702D524F4803400E00127E5
:102EC000574502DDA7EB0A0000E0002000EB0A01F5
:102ED000009005984144401A0590E00306D45B46F3
:102EE0002146179A059800F0B3F90544002706E03B
:102EF00001A85A46C05D179990476D1C7F1C474535
:102F0000F6DBE0030CD55B462146179A059800F0E6
:102F10009FF9054404E030205A46179990476D1CEC
:102F20000099481E00900029F5DC08E002980299FB
:102F30005A460078491C0291179990476D1CBAF1C6
:102F40000001AAF1010AF1DC65E100000928010095
:102F5000303132333435363738396162636465660F
:102F600000000000303132333435363738394142D1
:102F7000434445460000000000F058F90544761C23
:102F8000307800287FF4ECAD19B02846BDE8F08F0A
:102F9000620700D4062709F1070222F0070CFCE8BB
:102FA0000223E14603F000485FEA080C02D00FF26A
:102FB000702C0DE05FEA045C02D50FF2682C07E08C
:102FC0005FEAC47C02D00FF2602C01E0AFF2700C1B
:102FD0004FF0FF3823F00043CDF850C065280CD0E7
:102FE00006DC452809D046281DD047283DD13DE0C4
:102FF000662818D067287ED138E00021112F01DB28
:10300000112000E0781CCDE9000106A90EA8FFF709
:10301000DDFCDDE90F010E9A03910021009207F11A
:10302000010A04914DE04FF000400097CDE90110F6
:1030300006A90EA8FFF7CAFCDDE90F0203920E9B5A
:1030400011990022DDF80CA00093049211B9791CAB
:1030500000EB010AB7EB0A0004D4C0F1FF3007F11E
:10306000010A0490AAEB0700019044E0012F00DA66
:1030700001270021112F01DD112000E03846CDE9A4
:10308000000106A90EA8FFF7A1FCDDE90F010E9AC9
:103090000391002104910092BA4621070CD40399B0
:1030A000514500DA8A46BAF1010F05DD009AAAF10E
:1030B0000101515C302908D0B84202DA10F1040F46
:1030C00006DA0121CDE9011015E0AAF10101E9E7D5
:1030D000002805DC049901440491AAEB000102E0F8
:1030E000411C514500DD8A460499401A401C01905C
:1030F0004FF000400290200704D40198504501DBB6
:10310000CDF8048000208DF84F0002980DF14F0794
:10311000B0F1004F25D02B200E9002984FF00208FE
:1031200000280CDA404202902D200E9007E00A2180
:103130000298FDF7CDF93031029007F8011DB8F182
:103140000001A8F10108F2DC02980028EFD1791EF5
:103150000E980870307800F0200040F0450007F825
:10316000020D12A8C01B00F107081498007800B1E6
:10317000012000EB0A01019801EBE0710598414440
:10318000401A401E0590E00306D45B462146179A7C
:10319000059800F05DF805441498007818B15A4677
:1031A000179990476D1CE00324D55B462146179A7A
:1031B000059800F04DF805441CE00498002807DB52
:1031C000DDE90301884203DD0098405C179901E0C6
:1031D000179930205A469047049805F10105401C84
:1031E00004900198401E019004D12E205A46179950
:1031F00090476D1CBAF10001AAF1010ADDDC05E07F
:1032000017F8010B5A46179990476D1CB8F1000149
:10321000A8F10108F4DC5B462146179A0598ABE655
:103220002D0000002B000000200000002DE9F041DF
:10323000044600251E461746880404D405E0394696
:103240002020B0476D1C641EF9D52846BDE8F081EA
:103250002DE9F041044600251E469046C80301D5DD
:10326000302700E02027880404D505E04146384691
:10327000B0476D1C641EF9D52846BDE8F0810A6888
:10328000531C0B601070704730B585B005460020A8
:10329000ADF8000000F0B8FA441E03A800F03EF8B4
:1032A000044404A800F098F90444684600F0DAF9F0
:1032B000044401A800F078F80444284600F0FEF821
:1032C0000444032000F0A0FA05B0204430BD000003
:1032D0007CB50021104C8DF800108DF80410606052
:1032E000011E16D008790123CD686A460021A8473F
:1032F000616805469DF800004870012201A93E2042
:1033000000F0F6F9626828449DF8041040B251714B
:103310007CBD6FF07E007CBD1400002038B5214AD2
:1033200000210091044651684FF0FF30A9B1127896
:10333000B2B1012A24D0022A11D108790223CD6822
:103340006A461946A8479DF800109DF9012001F032
:10335000FC0141EA0221891021E06FF07E0038BDB6
:1033600008790223CD686A461946A8479DF80010DF
:103370009DF9012001F0F00141EA022109110EE05E
:1033800008790223CD686A461946A8479DF80010BF
:103390009DF9012001F0C00141EA0221891121803B
:1033A00038BD0000140000207CB504460020424ACD
:1033B0000090019050684FF0FF3130B112783AB16F
:1033C000012A2BD0022A75D14EE06FF07E007CBD21
:1033D00006790623C5686A4602213046A847014699
:1033E0009DF800009DF9012000F0F00040EA022065
:1033F000001120809DF802009DF9032000F0F000EC
:1034000040EA0220001160809DF804009DF905202B
:1034100000F0F00040EA022000114AE0067906239D
:10342000C5686A4602213046A84701469DF800005B
:103430009DF9012000F0C00040EA022080112080A8
:103440009DF802009DF9032000F0C00040EA022030
:10345000801160809DF804009DF9052000F0C000F7
:1034600040EA0220801124E005790623C6686A46F6
:1034700002212846B04701469DF800009DF9012031
:1034800000F0FC0040EA0220801020809DF802003D
:103490009DF9032000F0FC0040EA022080106080CB
:1034A0009DF804009DF9052000F0FC0040EA022090
:1034B0008010A08008467CBD140000207CB5044626
:1034C0000020444A0090019050684FF0FF3130B125
:1034D00012783AB1012A2BD0022A78D14EE06FF04F
:1034E0007E007CBD06790723C5686A460221304606
:1034F000A84701469DF800009DF9012000F0F0006A
:1035000040EA0220001120809DF802009DF903206E
:1035100000F0F00040EA0220001160809DF80400F5
:103520009DF9052000F0F00040EA022000114AE079
:1035300006790723C5686A4602213046A847014636
:103540009DF800009DF9012000F0C00040EA022033
:10355000801120809DF802009DF9032000F0C0003A
:1035600040EA0220801160809DF804009DF905204A
:1035700000F0C00040EA0220801124E00579072312
:10358000C6686A4602212846B04701469DF80000F9
:103590009DF9012000F0FC0040EA0220801020800C
:1035A0009DF802009DF9032000F0FC0040EA022093
:1035B000801060809DF804009DF9052000F0FC005B
:1035C00040EA02208010A0809DF80600A071084605
:1035D0007CBD00001400002038B5214A0021009174
:1035E000044651684FF0FF30A9B11278B2B1012AF8
:1035F00024D0022A11D108790223CD686A46042119
:10360000A8479DF800109DF9012001F0FC0141EA56
:103610000221891021E06FF07E0038BD0879022375
:10362000CD686A460421A8479DF800109DF9012045
:1036300001F0F00141EA022109110EE008790223AC
:10364000CD686A460421A8479DF800109DF9012025
:1036500001F0C00141EA02218911218038BD00003A
:103660001400002038B5214A002100910446516819
:103670004FF0FF30A9B11278B2B1012A24D0022A4A
:1036800011D108790223CD686A460621A8479DF822
:1036900000109DF9012001F0FC0141EA022189108E
:1036A00021E06FF07E0038BD08790223CD686A46BC
:1036B0000621A8479DF800109DF9012001F0F001B6
:1036C00041EA022109110EE008790223CD686A4619
:1036D0000621A8479DF800109DF9012001F0C001C6
:1036E00041EA02218911218038BD00001400002028
:1036F000F0B406460748406840B105791346C468EF
:103700000A4631462846A446F0BC6047F0BC6FF03C
:103710007E0070471400002038B500218DF800109D
:103720000C462349496841B14B7808386FF00102D3
:10373000FB2B05D0082823D320E06FF07E0038BD96
:1037400007281BD205D2DFE800F0232527292B2DDF
:103750002F0008790123CD686A461021A847054645
:103760009DF80000012264F304008DF80000694612
:10377000102000F00DF9284440B238BD104638BD85
:103780000828E6D2DFE800F00406080A0C0E101242
:103790000824DEE70924DCE70A24DAE70B24D8E76B
:1037A0000C24D6E70D24D4E70E24D2E70F24D0E76B
:1037B00014000020F0B5134903460020496861B1A8
:1037C000062B1BD20022042502260124062B06D23A
:1037D000DFE803F006080C120A0F6FF07E00F0BD60
:1037E0008A7004E08E7002E08E7003E08D70CA7003
:1037F000F0BD8D70CC70F0BD8C70F0BD6FF001002D
:10380000F0BD000014000020FEB506460020394C33
:103810008DF800008DF804008DF808006068A0B3F2
:1038200005790123C7686A4611212846B8476168AF
:10383000054601230879CF6801AA1221B84705443B
:103840006068407940F00C008DF808003046FFF7C2
:10385000B1FF054460689DF8041001228778C078A4
:1038600060F386118DF8041001A9122000F090F881
:10387000284445B260684169012088476068007843
:10388000012806D0042804D019E0FFE76FF07E007D
:10389000FEBDA6B99DF80000012220F0E00040F036
:1038A00080008DF800006946112000F071F8054491
:1038B000012202A93E2000F06BF8284445B29DF891
:1038C0000000012267F347108DF8000069461120BF
:1038D00000F05EF8054460684169012088470122D4
:1038E00002A93E2000F054F86168284440B20E70EE
:1038F000FEBD000014000020F8B5044600208DF83D
:1039000000002248406850B1032C0BD0052C09D090
:10391000082C07D00C2C05D06FF00100F8BD6FF01B
:103920007E00F8BD05790123C6686A460F21284646
:10393000B0470546032C06D0052C0AD0082C17D01A
:103940000C2C0DD11BE09DF8000020F00F00C01CD6
:1039500004E09DF8000020F00F00401D8DF80000ED
:10396000012269460F2000F013F8284440B2F8BD48
:103970009DF8000020F00F0040F00800EEE79DF8F1
:10398000000020F00F0040F00C00E7E714000020DA
:103990002DE9F0410B4C0746606880B1057913466C
:1039A0000A46866839462846B04705466068017869
:1039B00011B14169012088472846BDE8F0816FF0C8
:1039C0007E00FAE71400002030B587B005460020DD
:1039D000ADF800008DF8040000F0FEF90444012069
:1039E00000F0BCF9044401A800F036F8044405A82E
:1039F00000F04CF8044406A800F0D6F804446846E9
:103A000000F0EEF8044402A800F05CF804442846F4
:103A100000F088F80444012000F0DEF907B02044EB
:103A200030BD000038B5044600208DF8000009487C
:103A3000016859B148780123CD686A461221A84728
:103A40009DF8001001F00701217038BD6FF07E0075
:103A500038BD00001000002038B5044600208DF865
:103A600000000948016859B148780123CD686A46C9
:103A70001021A8479DF8001001F00701217038BD02
:103A80006FF07E0038BD00001000002038B50446FD
:103A9000002000900A48016879B148780223CD6877
:103AA0006A461946A8479DF800108DF800109DF849
:103AB000012041EA0221218038BD6FF07E0038BD2F
:103AC000100000207CB504460020009001901448AE
:103AD000006810B345780623C6686A460221284666
:103AE000B0479DF800108DF800109DF8012041EAC4
:103AF000022121809DF802108DF802109DF803200C
:103B000041EA022161809DF804108DF804109DF8AF
:103B1000052041EA0221A1807CBD6FF07E007CBDC2
:103B200010000020FEB50446002000900190029095
:103B30001C48006888B345780C23C6686A46022191
:103B40002846B0479DF800108DF800109DF8012020
:103B500041EA022121809DF802108DF802109DF8A3
:103B6000032041EA022161809DF804108DF80410C1
:103B70009DF8052041EA0221A1809DF80710A1715E
:103B80009DF80810E1719DF8091021729DF80A1046
:103B900061729DF80B10A172FEBDFFE76FF07E0011
:103BA000FAE700001000002038B50446002000901D
:103BB0000A48016879B148780223CD686A46042131
:103BC000A8479DF800108DF800109DF8012041EAEB
:103BD0000221218038BD6FF07E0038BD100000202A
:103BE00038B50446002000900A48016879B1487849
:103BF0000223CD686A460621A8479DF800108DF87B
:103C000000109DF8012041EA0221218038BD6FF0AB
:103C10007E0038BD100000202DE9FC410025224E19
:103C200004468DF800508DF80450306810B390F8B9
:103C300001C00123C7686A4611216046B847316850
:103C4000074601234878CE6801AA1221B0473844BC
:103C500042B29DF80000052101EA50109DF80410C1
:103C60008DF80000C1F38013C9098DF804102BB141
:103C7000042014E06FF07E00BDE8FC8150EA0103EF
:103C800006D0012806D0052804D0042804D007E077
:103C9000257005E0012002E021B109B10320207068
:103CA0001046E9E70220FAE71000002038B50021AD
:103CB000074C8DF80010014620600123CD68407844
:103CC0006A460021A84722689DF80010117038BD8F
:103CD00010000020F8B504461F4D00208DF80000AC
:103CE00028680F4690B146780123D0F80CC06A4688
:103CF00012213046E0470646082C29D2082F14D25C
:103D0000DFE807F0131313070B0F0B0F6FF07E00A4
:103D1000F8BD022C0CD802240AE0042C08D8042494
:103D200006E0062C04D8062402E0012C00D8012469
:103D30009DF80000012364F302008DF8000029685B
:103D40006A4648788C681221A047304440B2F8BDDA
:103D50006FF00100F8BD0000100000202DE9FC41CB
:103D6000044600201B4D8DF800008DF80400074626
:103D7000286850B1082C29D201A8FFF74DFF06464C
:103D80009DF80400042804D008E06FF07E00BDE830
:103D9000FC8121463846FFF79DFF0646296801232E
:103DA0006A464878CF681021B84706449DF800005D
:103DB000012364F302008DF8000029686A46487800
:103DC0008C681021A047304440B2E0E76FF001005A
:103DD000DDE7000010000020F0B585B006460020A9
:103DE0003D4C8DF800008DF804008DF808008DF82A
:103DF0000C008DF810002068C8B1052E67D24578F8
:103E00000123C7686A4611212846B847216805463C
:103E100001234878CF6801AA1221B847284445B247
:103E2000052E56D2DFE806F0070C34343B006FF065
:103E30007E0005B0F0BD9DF8000040F0A00005E058
:103E40009DF8000020F0A00040F020008DF8000058
:103E50009DF80400012340F080008DF8040040F03C
:103E600040008DF8080021686A4648788E68112164
:103E7000B047054420680169012088472168012373
:103E800002AA48788C681221A047284445B220E055
:103E90009DF8000020F0A00040F08000D6E704A8C4
:103EA000FFF7DAFD054403A8FFF7BCFD05449DF8C4
:103EB00010109DF80C00FFF70DFF21680544012349
:103EC0004878CE6801AA1221B0470544B3E76FF0E5
:103ED00001052846ADE7000010000020F8B50446B3
:103EE000124D00208DF800002868C8B1052C1AD2A8
:103EF0004678012387686A460F213046B847064650
:103F00009DF80000012364F302008DF80000296889
:103F10006A4648788C680F21A047304440B2F8BD0B
:103F20006FF07E00F8BD6FF00100F8BD10000020BA
:103F3000034610B5154813F5805F26D0002924D01C
:103F4000134A1268D48B002C1FD0A003B0FBF1F0F1
:103F5000A0F5804000B292F91D1000FB00F4E411BE
:103F60006143147FE40100FB04104FF4801101EB66
:103F7000602092F91210A03148430013584392F97F
:103F80001010401300EBC10000B210BD0080FFFF15
:103F90001C000020024610B5144812F5805F24D0A2
:103FA000002922D012480068C38B9B03B3FBF1F1B8
:103FB000A1F5804109B290F91D3001FB01F4E41133
:103FC0006343047FE40101FB04314FF4801303EBEE
:103FD000612190F9133090F91100A033594309136E
:103FE0005143491301EBC00000B210BD0080FFFF38
:103FF0001C000020F0B50346184813F5804F29D067
:10400000174A1268B2F91650002D25D0948A002C58
:1040100022D0002920D0B2F91E7009B2CF1BB2F90C
:104020001860B2F91A2049007E434C43B6109A1A20
:1040300004F50044C6EBC23205EB244192FBF1F2D9
:10404000B2F5004F01DB420C05E0824203DC034A7B
:10405000521C00E0024610B2F0BD00000080FFFFDD
:104060001C00002010B500F0C7F8441E012000F02D
:1040700037F9204610BD000038B5044600208DF801
:1040800000000948016859B1487801238D686A46E3
:104090004B21A8479DF8001001F00101217038BDA7
:1040A0006FF07E0038BD00001C000020F8B5104CF9
:1040B000002100912060012000F08EF90546206863
:1040C000C16802208847216801236A4648788E68C3
:1040D0004021B047216805449DF80000087000F0B9
:1040E00009F84419022000F09DF9204440B2F8BDBF
:1040F0001C000020F8B53F4C0020009022680123EE
:104100005D21507895681032A84722680546012342
:1041100050785E2196681132B04722680544012329
:104120005078642196681232B04722680544012312
:104130005078652196681332B04722680544012300
:104140005078712196681C32B047226805440123DB
:104150005078702196681D32B047216805440223CB
:1041600048788E686A466A21B04721680544BDF8E0
:1041700000008882487802238E686A466821B0472A
:1041800005449DF800009DF80110022340EA01203B
:1041900021686A46C88248788E686E21B047054417
:1041A0009DF800009DF80110022340EA01202168DB
:1041B0006A46088348788E686221B04705449DF8B6
:1041C00000009DF80110022340EA012021686A46A0
:1041D000488348788E686C21B0479DF801102844C8
:1041E00001F07F018DF801102268BDF8001040B287
:1041F000D183F8BD1C0000202DE9FC4104460020BD
:104200000090019022480068E8B34578082386684A
:104210006A4642212846B04780469DF80000C00803
:104220008DF800009DF9011040EA41109DF8021040
:10423000C9088DF802109DF9032041EA42169DF845
:10424000041049088DF804109DF9052041EAC215B3
:104250009DF8061089088DF806109DF8072041EAA0
:1042600082173946FFF764FE208039463046FFF753
:1042700091FE608039462846FFF7BCFEA080E780AB
:104280004046BDE8FC81FFE76FF07E00F9E70000E3
:104290001C000020F8B50546104C00208DF80000E9
:1042A0002068B8B14678012387686A464C213046B9
:1042B000B84706469DF80000012365F3C5008DF858
:1042C000000021686A4648784C684C21A047304479
:1042D00040B2F8BD6FF07E00F8BD00001C00002069
:1042E000F8B53C4C00218DF8001021684FF0FF35E7
:1042F00041B150B1012829D0022823D003284DD044
:104300006800F8BD6FF07E00F8BD6846FFF7B4FEA8
:1043100005469DF8000040B9012000F05DF82844F2
:1043200045B22068C16802208847216801236A4697
:1043300048788E684C21B04705449DF8000020F075
:1043400006001FE0002000F047F8F8BD6846FFF7C0
:1043500093FE05469DF8000038B9012000F03CF8B6
:1043600005462068C16802208847216801236A4603
:1043700048788E684C21B04705449DF8000020F035
:104380000600801C8DF80000216801236A464878E9
:104390004C684C21A047284440B2F8BD6846FFF75E
:1043A0006BFE9DF8000038B9012000F015F80546B5
:1043B0002068C16802208847216801236A4648783E
:1043C0008E684C21B04705449DF8000040F006007F
:1043D000D8E700001C000020F8B50546104C00206E
:1043E0008DF800002068B8B14678012387686A46D6
:1043F0004B213046B84706469DF80000012365F37F
:1044000000008DF8000021686A4648784C684B210E
:10441000A047304440B2F8BD6FF07E00F8BD000008
:104420001C00002010B5012808D0022810D0032855
:1044300018D0042820D06FF0010010BD0020FFF735
:1044400029FF0446012000F025F8044402201CE066
:104450000020FFF71FFF0446042000F01BF804446F
:104460000E2012E00520FFF715FF0446172000F08C
:1044700011F80444522008E00020FFF70BFF044627
:10448000072000F007F804441A2000F019F820442F
:1044900040B210BD38B500218DF8001007490968F9
:1044A00041B18DF80000487801234C686A465121DB
:1044B000A04738BD6FF07E0038BD00001C00002012
:1044C00038B500218DF800100749096841B18DF811
:1044D0000000487801234C686A465221A04738BD45
:1044E0006FF07E0038BD00001C0000201B4810B596
:1044F000194981601A49C1601A494161FEF7E8FE15
:104500000320FFF7F9F90B20FFF706F913481649C6
:1045100018304160154981601549C160FFF7C6FD3B
:104520000220FFF77FFF0120FFF7DAFE0720FFF7E9
:10453000B1FE0A480F49383081600F49C1600F4908
:104540000161FFF7B3FB0220FFF7C8FCBDE8104094
:104550000620FFF703BC00004107000820000020F0
:10456000E1060008950700089908000841080008BE
:10457000ED080008F1070008990700083D08000849
:104580008CB0FCF773FB3B48FCF7D6FEFDF703FF4E
:10459000FDF74AFCFDF79EFCFDF7F4FCFDF7BEFCC1
:1045A000FFF7A4FFDFF8D080DFF8D090DFF8D0A0CD
:1045B00004A8FEF769FE06A8FFF706FA09A8FFF7A8
:1045C00051FDBDF91410BDF91220CB1701EB937109
:1045D000D31702EB937289109210CDE90021BDF937
:1045E00010009DF91620C11700EB9170831025A1D2
:1045F0000020FDF731FDBDF928000090BDF92630FF
:10460000BDF9242028A10020FDF726FDBDF91C00DE
:10461000FBF74DFF42464B46FBF768FE0022534630
:10462000FBF7D6FE06460F46BDF91A00FBF73FFF23
:1046300042464B46FBF75AFE00225346FBF7C8FEA4
:1046400004460D46BDF91800FBF731FF42464B46C4
:10465000FBF74CFE00225346FBF7BAFE8DE8F00054
:1046600002460B4616A10020FDF7F6FC6420FCF77D
:10467000DBF99DE76C0000204AD8124DFB21094070
:104680000080664074656D70203D2025642C207884
:10469000203D2025642C2079203D2025642C207A83
:1046A000203D2025640A000078203D2025642C2030
:1046B00079203D2025642C207A203D2025640A00A5
:1046C00078203D2025662C2079203D2025662C2051
:1046D0007A203D2025660A0000000000000000004E
:1046E0000102030406070809000000000102030498
:1046F0003031323334353637383941424344454618
:10470000204700080000002020000000AC2900081D
:104710004047000820000020E8090000BC290008EC
:104720000100000010000000000000000024F40060
:104730000000000002000000000000000000000077
:04000005080000ED02
:00000001FF
